:020000040800F2
:10000000E004002001010008EF15000809150008B0
:10001000ED1500080F0200085D1A0008000000003E
:100020000000000000000000000000005D17000854
:100030001102000800000000F1150008A1170008D7
:100040001B0100081B0100081B0100081B01000820
:100050001B0100081B0100081B0100081B01000810
:100060001B0100081B0100081B0100081B01000800
:100070001B0100081B0100081B0100081B010008F0
:100080001B0100081B0100081B0100081B010008E0
:100090001B0100081B0100081B0100081B010008D0
:1000A0001B0100081B0100081B0100081B010008C0
:1000B0001B0100081B0100081B0100081B010008B0
:1000C0001B0100081B0100081B0100081B010008A0
:1000D0001B010008511A00081B0100081B01000841
:1000E0001B0100081B0100081B010008DFF80CD0F1
:1000F00000F06CF8004800470D210008E0040020E3
:100100000648804706480047FEE7FEE7FEE7FEE7B1
:10011000FEE7FEE7FEE7FEE7FEE7FEE7031800085E
:10012000ED000008202A04DB203A21FA02F0002129
:10013000704721FA02F3D040C2F1200291400843F7
:1001400019467047D2B201E000F8012B491EFBD2DC
:1001500070470022F6E710B513460A4604461946D2
:10016000FFF7F0FF204610BD2DE9F05F05460020A7
:1001700092469B4688460646814640241BE0284618
:10018000414647462246FFF7CDFF53465A46C01A1E
:10019000914110D311461846224600F029F82D1A35
:1001A00067EB01084F4622460120002100F020F8AD
:1001B00017EB00094E41201EA4F10104DFDC484684
:1001C00031462A464346BDE8F09F0000064C074DE5
:1001D00006E0E06840F0010394E807009847103417
:1001E000AC42F6D3FFF786FF80220008A022000869
:1001F000202A04DB203A00FA02F1002070479140E7
:10020000C2F1200320FA03F3194390407047FEE740
:10021000704772B6FEE710B590F82110002202294F
:1002200005D00421816380F82020012010BD0168E1
:100230000B6823F00E030B6001680B6823F00103C9
:100240000B6090F84030C46B012101FA03F3636046
:1002500080F8211080F82020104610BD10B590F8CD
:1002600021100024022903D00421816301243DE0F0
:1002700001680A6822F00E020A6001680A6822F02A
:1002800001020A601A4A0168914201D1012121E06C
:10029000174A1432914201D110211BE0144A28322E
:1002A000914201D1891515E0114A3C32914201D1A8
:1002B00089140FE00E4A5032914202D14FF480313E
:1002C00008E00B4A6432914202D14FF4801101E000
:1002D0004FF08071064A083A5160012180F82110E0
:1002E000002180F82010416B01B18847204610BDE5
:1002F0000800024070B5044600F004F90546601C91
:1003000002D004480078044400F0FCF8401BA042EE
:10031000FAD370BD040000202DE9F84FDFF8B89142
:100320000024A9F1040B23460F2709F1040AABF1BD
:10033000040EC9E00125A5402A40AA427DD1674E9E
:10034000D1F804C0ACEB0608B44532D014DCBCF1E3
:10035000030F3AD009DCBCF1000F2AD0BCF1010F29
:100360001CD0BCF1020F31D11DE0BCF1110F17D030
:10037000BCF1120F2AD119E0B8F5881F19D006DC9C
:10038000B8F5803F15D0B8F5801F1FD111E0B8F542
:10039000001F0ED0B8F5041F18D10AE0CB6815E095
:1003A000CB681B1D12E0CB6808330FE0CB680C3321
:1003B0000CE08B682BB1012B4FF0080303D0456193
:1003C00004E0042302E0056100E00023FF2A01D8D5
:1003D000064601E000F104064FEA840501D9A5F1C3
:1003E0002005D6F8008007FA05FC28EA0C0803FA75
:1003F00005F548EA0508C6F800804D68ED0062D5AD
:10040000374DAE6946F00106AE61AD6924F00306D2
:1004100005F001050095334D06EB050CDCF808509E
:10042000A607360F07FA06F825EA0805DFF8B880B0
:10043000404503D14FF0000817E044E0DFF8AC80FE
:10044000404502D14FF001080FE0DFF8A48040459D
:1004500002D14FF0020808E0DFF89880404502D151
:100460004FF0030801E04FF0040808FA06F848EAE4
:100470000508CCF808804D68D9F80060ED024D46BB
:1004800001D5164300E096432E604D68DAF800600F
:10049000AD02554601D5164300E096432E604D68E7
:1004A000DBF80060AD035D4601D5164300E09643DE
:1004B0002E604D68DEF80060ED03754601D51643E9
:1004C00000E096432E60641C0D682A46E5407FF4E8
:1004D00031AFBDE8F88F00000804014000001110A2
:1004E000001002400000014000080140000C0140E3
:1004F00000100140001401400AB101617047090475
:10050000FBE70000014880687047000004000020FD
:10051000024881680278114481607047040000201D
:10052000074810B5016841F010010160032000F098
:1005300075F80F2000F006F800F024F8002010BD38
:100540000020024070B50D4D04464FF47A712878B2
:10055000B1FBF0F00A490968B1FBF0F000F0C3FD0F
:1005600048B9102C07D200222146501E00F036F860
:1005700000206C6070BD012070BD000004000020F0
:10058000100000200C4808B5816941F0010181612B
:10059000816901F001010091C16941F08051C1619F
:1005A000C06900F0805000900448416821F0E0618B
:1005B00041F00071416008BD0010024000000140A0
:1005C000002809DB00F01F02012191404009800052
:1005D00000F1E020C0F8001170470000F0B40E4BAD
:1005E0001B680C46C3F30223C3F10705042D00D991
:1005F0000425191D072901D2002300E0DB1E012676
:1006000006FA05F1491E214099409E40761E16408B
:100610003143F0BC01F01CBB0CED00E0064900F0DA
:10062000070208684FF6FF03184040EA0220034A19
:1006300010430860704700000CED00E00000FA0570
:100640002DE9F0470F46050061D0434E306800F0B9
:100650000700B84209D2306820F007003843306004
:10066000306800F00700B84251D128683B4C810740
:1006700012D5400703D5606840F4E06060602878D8
:10068000000703D5606840F4605060606068A96846
:1006900020F0F000084360602878C00728D0686820
:1006A000012810D02168022810D0890700292EDAED
:1006B000616821F0030101436160FFF723FF804679
:1006C00041F288390DE021688903EFE78901EDE700
:1006D000FFF718FFA0EB0801494502D90320BDE848
:1006E000F0876068696800F00C00B0EB810FEFD113
:1006F000306800F00700B8420BD9306820F00700DE
:1007000038433060306800F00700B84201D0012063
:10071000E5E72878400705D56068E96820F4E060DF
:10072000084360602878000706D56068296920F4CE
:10073000605040EAC100606000F038F86168084A23
:10074000C1F30311515CC8400649086006480068BF
:10075000FFF7F8FE0020C2E7002002400010024030
:100760006622000810000020080000200448054907
:1007700000684968044AC1F30221515CC8407047CF
:1007800010000020001002407622000804480549AD
:1007900000684968044AC1F3C221515CC8407047EF
:1007A0001000002000100240762200080E4A516816
:1007B0000E4801F00C03042B11D0082B0FD10C486C
:1007C000C1F38343C903C05C0AD55168084AC1F329
:1007D0004041921E515C054A5043B0FBF1F0704716
:1007E00004494843704700000010024000127A009C
:1007F0005622000800093D002DE9F84F040070D092
:100800002078C04DC00749D06868C0F38100012836
:1008100007D06868C0F38100022809D16868C00366
:1008200006D52868800339D560680028E7D035E010
:100830006068B0F5803F0BD010B1B0F5A02F11D09B
:10084000286820F480302860286820F4802002E0A6
:10085000286840F480302860606890B1FFF752FE4D
:1008600006460AE0286840F480202860F0E700BFD0
:10087000FFF748FE801B642873D828688003F7D5EB
:100880000CE0FFF73FFE064605E000BFFFF73AFE2B
:10089000801B6428F0D828688003F7D420789A4E0B
:1008A00080074FF001094FF0000839D5686810F053
:1008B0000C0F07D06868C0F38100022809D168686E
:1008C000C00306D42868800714D52069012808D100
:1008D00010E02069B0B1C6F80090FFF713FE07469C
:1008E00005E00AE1FFF70EFEC01B0228C4D8286805
:1008F0008007F7D52868616920F0F80040EAC10058
:1009000028600DE0C6F80080FFF7FCFD074604E014
:10091000FFF7F8FDC01B022823D828688007F7D40A
:10092000207800072CD57948A169D9B1C0F800908A
:10093000FFF7E8FD074604E0FFF7E4FDC01B0228CF
:100940000FD8686A8007F7D571484FF4FA510068EC
:10095000B0FBF1F0009000BF0098411E0091FAD268
:100960000EE080E0C0F80080FFF7CCFD074604E011
:10097000FFF7C8FDC01B022875D8686A8007F7D446
:100980002078400760D5E8690027C00008D4E869EE
:1009900040F08050E861E869012700F08050009045
:1009A0005C480168C90513D40168834641F480712D
:1009B0000160FFF7A7FD824606E000BFFFF7A2FD3A
:1009C000A0EB0A0064284ED8DBF80000C005F5D57E
:1009D000E06801280AD008B1052813D0286A20F061
:1009E00001002862286A20F0040002E0286A40F032
:1009F00001002862E06841F2883B98B1FFF782FD70
:100A000082460BE0286A40F004002862EEE700BF4F
:100A1000FFF778FDA0EB0A0159455AD8286A8007EC
:100A2000F6D50CE0FFF76EFD824605E0FFF76AFDA4
:100A3000A0EB0A0159454CD8286A8007F6D41FB1AB
:100A4000E86920F08050E861E06988B36968C1F323
:100A50008101022944D00228C6F8608004D0FFF743
:100A600051FD044638E034E0FFF74CFD074604E052
:100A7000FFF748FDC01B02282BD828688001F7D457
:100A8000206AB0F5803F05D16868A16820F4003085
:100A900008436860D4E908010843696821F47411C7
:100AA00008436860C6F86090FFF72CFD044606E036
:100AB00025E000BFFFF726FD001B022809D82868A3
:100AC0008001F7D51BE000BFFFF71CFD001B0228CB
:100AD00002D90320BDE8F88F28688001F4D40EE025
:100AE0000128F7D06868226A00F48031914204D16D
:100AF000616A00F47010884201D00120EAE700200A
:100B0000E8E7000000100240000042428004424238
:100B1000100000200070004070B5040009D0606A29
:100B2000002540B125616561A56294F8510040B18E
:100B30000CE0012070BD6068B0F5827FF4D0E56103
:100B4000F2E784F85050204600F040F8022084F884
:100B500051002068016821F040010160A0882189CE
:100B600000F4827001F404410843A18901F400619A
:100B70000843217C01F002010843217D01F00101BD
:100B80000843218B01F400710843217F01F03801F3
:100B9000084394F8201001F080010843218D01F4EE
:100BA0000051084321680860A069042101EA10404F
:100BB000216848602068C16921F40061C1616565F0
:100BC000012084F85100002070BD000030B585B0D0
:100BD000002400940194029403940068144988420C
:100BE00023D11448816941F480518161816901F404
:100BF00080510491816941F00401816180690E4D49
:100C000000F004000490A020009002200190032036
:100C1000039069462846FFF77FFB4020CDE900049A
:100C2000694628460294FFF777FB05B030BD000007
:100C30000030014000100240000801402DE9F84F4B
:100C4000044690F851001D4616460F46012838D13B
:100C500060684FF00408B0F5827F01D1A06830B31E
:100C6000FFF750FC8246002F75D0002E73D094F809
:100C70005000012825D04FF0010984F8509084F8E5
:100C800051804FF00008C4F85480A763A687E68718
:100C9000C4F83080A4F83480A4F83680C4F84080CA
:100CA000C4F84480A068B0F5004F0CD015E084F87B
:100CB0005180009313460A46204600F01CF9BDE817
:100CC000F88F0220FBE72068016821F040010160F5
:100CD0002068016821F480410160206801684906AC
:100CE00003D4016841F040010160E068C0B134E024
:100CF00020688168C90709D0007BA16B0870A06BD0
:100D0000401CA063E08F401EE08709E0FFF7FAFB7C
:100D1000A0EB0A00A84202D3681C01D032E085B3E0
:100D2000E08F0028E4D11BE020688168C90709D062
:100D3000C068A16B0880A06B801CA063E08F401E80
:100D4000E0870AE0FFF7DEFBA0EB0A00A84203D32E
:100D5000681C02D016E012E09DB1E08F0028E3D1BC
:100D600052462946204600F044FC08B12020606528
:100D700084F8519084F85080606D00289FD0012045
:100D80009DE7FFE784F8519084F85080032096E7B0
:100D90002DE9F84F984616468A460446FFF7B2FBFF
:100DA000814694F8510001281ED1BAF1000F73D08A
:100DB000002E71D094F85000012815D0012784F836
:100DC0005070032084F8510000256565C4F830A0F8
:100DD000A686E686A563A587E58765642564A06881
:100DE000B0F5004F03D00CE00220BDE8F88F20687A
:100DF000016821F0400101602068016841F48041F0
:100E0000016020680168490603D4016841F040018F
:100E10000160E068B0F5006F606803D048B3012E50
:100E200027D047E008B1012E1FD1206B2168008830
:100E3000C86006E020688168890709D5216B0988A8
:100E4000C160206B801C2063E08E401EE0860CE0B9
:100E5000FFF758FBA0EB0901414503D3B8F1FF3F71
:100E600003D035E0B8F1000F32D0E08E0028E1D198
:100E700023E0206B21680078087306E02068816811
:100E800089070AD5216B09780173206B401C206308
:100E9000E08E401EE0860DE02BE0FFF733FBA0EB79
:100EA0000901414503D3B8F1FF3F03D010E0B8F189
:100EB000000F0DD0E08E0028E0D14A464146204682
:100EC00000F0C5FB08B120206065A06830B109E0E2
:100ED00084F8517084F85050032086E72068C16878
:100EE0008068009084F8517004F8505F60680028B2
:100EF000F3D0012079E72DE9FF4F81B01D469346DD
:100F000004464FF001090E9EFFF7FCFA074694F8DD
:100F100051006168012806D0B1F5827F3CD1A168FB
:100F2000C9BB042838D10298002871D0BBF1000F4A
:100F3000FBD0002DF9D094F8500001282CD04FF0B0
:100F4000010A84F850A094F85100042802D005202A
:100F500084F851004FF00008C4F85480C4F838B049
:100F6000E587A58702992163E586A586C4F84080B8
:100F7000C4F8448020680168490603D4016841F040
:100F800040010160E068B0F5006F606808D0F0B320
:100F9000012D49D081E0FFE7022005B0BDE8F08FC8
:100FA00008B1012D39D1206B21680088C860206B01
:100FB000801C2063E08E401EE0862EE02068816861
:100FC00089070FD5E18E69B1B9F1010F0AD1216B03
:100FD0000988C160206B801C2063E08E401EE08683
:100FE0004FF0000920688168C9070CD0E18F51B12A
:100FF000C068A16B0880A06B801CA063E08F401EBE
:10100000E0874FF00109FFF77DFAC01B01E00BE01C
:1010100067E0B04201D3701C50D1E08E0028CDD1E2
:10102000E08F0028CAD13EE0206B21680078087369
:10103000206B401C2063E08E401EE0862DE020687F
:10104000816889070FD5E18E69B1B9F1010F0AD125
:10105000216B09780173206B401C2063E08E401ED9
:10106000E0864FF0000920688168C9070CD0E18F45
:1010700051B1C068A16B0870A06B401CA063E08FE9
:10108000401EE0874FF00109FFF73CFAC01BB04259
:1010900002D3701C01D011E086B1E08E0028CED1C1
:1010A000E08F0028CBD13A463146204600F0CFFAF7
:1010B00050B12020606584F8508012E084F851A07F
:1010C00084F85080032068E7A06818B92068C168D8
:1010D0008068009084F851A084F85080606D0028EA
:1010E000F1D0012059E710B5401EB0F1807F01D347
:1010F000012010BD4FF0E02460610F21601700F067
:10110000A7FD0020A06107202061002010BD7047CE
:1011100070470000F8B5016804460868CA684B6962
:1011200010F00F0F4FF0000559D003F0010602F444
:101130009077374365D0C10705D0D10503D5616CE1
:1011400041F001016164410705D5D90703D0616C05
:1011500041F002016164810705D5D90703D0616CB4
:1011600041F004016164010707D502F02001314319
:1011700003D0616C41F008016164616C00293AD0D0
:10118000800604D5900602D5204600F06AFB206850
:101190004069616CC0F38010090700D460B3204639
:1011A00000F038FB20684069400621D520681430E3
:1011B00050E8001F21F0400140E80012002AF5D15C
:1011C000E06BA8B16D494163E06BFFF747F8002879
:1011D00011D0E06B416B01B0BDE8F04008478306D9
:1011E0000FD593060DD52046BDE8F84000F039BB79
:1011F0002046FFF78DFFF8BD2046FFF789FF6564A5
:10120000F8BD266B2023012E7CD1C6067AD5D606E2
:1012100078D508684868009048694FF00206400693
:1012200040D5E16B086840680004000CE8D0A28D4E
:101230008242E5D9E085886920282DD020680C30CD
:1012400050E8001F21F4807140E80012002AF5D117
:101250002068143050E8001F21F0010140E800121E
:10126000002AF5D12068143050E8001F21F0400119
:1012700040E80012002AF5D184F842302563206846
:101280000C3050E8001F21F0100140E80012002A45
:10129000F5D1E06BFEF7BFFF6663A08DE18D401ACC
:1012A00081B22AE0A08DE18D401A81B2E08D002844
:1012B000A6D00029A4D022680C3252E8000F20F4F6
:1012C000907042E80007002FF5D12068143050E8F4
:1012D000002F22F0010240E80027002FF5D184F80A
:1012E0004230256320680C3050E8002F22F01002B5
:1012F00040E80023002BF5D166632046FFF707FF87
:10130000F8BDFFE705062BD5150629D594F8410051
:101310002128F5D1A068B0F5805F01D12069B0B176
:10132000206A411C2162216800784860E08C401EE0
:101330000004000CE084E3D12068C16821F0800142
:10134000C1602068C16841F04001C160D8E7206AEF
:101350000088C0F308004860206A801C2062E5E72E
:101360004006CDD55006CBD5CA68204622F04002B3
:10137000CA6084F8413000F0C6F8C1E705180008DB
:1013800070B5040004D094F84100002510B106E0C7
:10139000012070BD84F84050204600F023F824203E
:1013A00084F841002068C16821F40051C1602046E2
:1013B00000F0B8FA2068016921F4904101612068C9
:1013C000416921F02A0141612068C16841F400515E
:1013D000C1606564202084F8410084F842006563A0
:1013E000002070BD30B585B00024009401940294B3
:1013F00003940068184988422CD11848816941F447
:1014000080418161816901F480410491816941F0E9
:10141000040181618069124D00F0040004904FF4D2
:101420000070009002200190032003906946284636
:10143000FEF772FF2815CDE900046946284602949C
:10144000FEF76AFF002211462520FFF7C7F8252086
:10145000FFF7B6F805B030BD00380140001002407B
:101460000008014070472DE9F843044690F8410018
:10147000984616460D46202802D00220BDE8F88383
:1014800085B17EB100206064212084F84100FFF71F
:1014900039F8A6848146E684A0682027B0F5805FED
:1014A00002D003E00120E9E7206910B12E460025B3
:1014B0000EE000260CE08021204600F08FFAA8B94B
:1014C000C6B116F8010B21684860E08C401EE0842C
:1014D000E08C4B464FF00002CDF800800028EAD1A6
:1014E0004FF04001204600F079FA40B184F8417095
:1014F0000320C3E735F8020BC0F30800E3E784F8E4
:1015000041700020BAE77047FEE7000030B585B0B3
:10151000002414480094019402940394816941F0DA
:1015200020018161816901F020010491816941F00C
:101530000401816180690C4D00F0040004900122D7
:1015400010212846FEF7D8FF102000900120CDE999
:1015500001040220039069462846FEF7DDFE05B02F
:1015600030BD00000010024000080140104810B5D6
:101570000E4901604FF48271416000218160C160B9
:101580004FF400720161C0E905120822C0E9072189
:10159000416281620A21C162FFF7BEFA002803D0CE
:1015A000BDE81040FEF735BE10BD00000030014020
:1015B000400000200C4810B50A4901604FF4E131A9
:1015C0004160002181600C22C160C0E90412816188
:1015D000C161FFF7D5FE002803D0BDE81040FEF73B
:1015E00018BE10BD0038014098000020FEE7FEE75D
:1015F0007047F8B5044640684FF48273984217D19B
:10160000A0684FF48065B0F5004F01D0A8420FD11B
:101610002068066826F0400606606068984207D198
:10162000A068A84204D100920B460022012103E0E9
:1016300000920B4600228021204600F033F800285B
:1016400004D0606D40F0200060650320F8BDF8B55F
:1016500015460E460B46009204460122022100F078
:1016600021F840B93346002280212046009500F041
:1016700019F8002804D0606D40F020006065032058
:10168000F8BD00000A46014664230148FFF7D6BAB8
:10169000400000200A46014664230148FFF778BB5A
:1016A000400000202DE9F8431E4691468846044636
:1016B000089DFEF727FF401B351AFEF723FF07465C
:1016C00025480068C0F3CB30684338E0701C37D041
:1016D000FEF718FFC01BA84203D215B1009860B3F3
:1016E0002CE02068416821F0E00141606068B0F5BD
:1016F000827F0BD1A068B0F5004F02D0B0F5806FAB
:1017000004D12068016821F040010160A06AB0F5B1
:10171000005F09D12068016821F400510160206850
:10172000016841F400510160012084F8510000205B
:1017300084F850000320BDE8F8830025401E009087
:101740002068816838EA010004D000214945BDD1F4
:101750000020F0E70121F9E71000002070470000A9
:1017600070B506460D4609A000F062FA002405E0B7
:10177000315D08A000F05CFA641CE4B2AC42F7D31F
:10178000BDE8704005A000F053BA000068657820FD
:101790003D20000020253032580000000D0A0000D6
:1017A000FEF7B6BE30B58FB028216846FEF7D1FCF3
:1017B00014210AA8FEF7CDFC01210804CDE9001090
:1017C0000024029402250491CDE907504FF4E01063
:1017D00009906846FFF710F808B172B6FEE70F20CF
:1017E000CDE90A054FF48060CDE90C4002210AA83A
:1017F0000E94FEF725FF002801D072B6FEE70FB069
:1018000030BD704710B5406A0021C185C184FFF723
:101810007FFC10BD01680C3151E8002F22F490725A
:1018200041E80023002BF5D10168143151E8002F65
:1018300022F0010241E80023002BF5D1016B0129C0
:1018400009D101680C3151E8002F22F0100241E863
:101850000023002BF5D1202180F8421000210163E4
:10186000704708B590F84210222901D0022008BD27
:1018700082684FF480539A4201D1016921B1816A93
:101880009A421BD04AB10AE00268816A5268C2F3E8
:1018900008020A80816A891C08E0026972B1026844
:1018A000526802F07F020A70816A491C8162C18D10
:1018B000491E0904090CC18503D01BE00268526867
:1018C000F1E70168CA6822F02002CA600168CA68AC
:1018D00022F48072CA6001684A6922F001024A61FA
:1018E000202180F8421000214163026B012A03D0BD
:1018F000FFF7B8FD002008BD016301680C3151E815
:10190000002F22F0100241E80023002BF5D10168DE
:101910000A68D20602D50A6849680091818DFFF7EE
:10192000F6FBE7E770B5044600680169E26821F458
:101930004051114301612169A0680843616908436E
:101940002168CA6841F20C639A430243CA60206866
:101950004169A26921F44071114341611E49206827
:10196000884202D1FEF712FF01E0FEF7FFFE00EB16
:10197000C00101EB0012606864218000B2FBF0F34B
:10198000B3FBF1F36FF018067343B2FBF0F5B2FB53
:10199000F0F605EB8305322303EB0515B5FBF1F5F6
:1019A000B6FBF1F605F0F00505EB0615B2FBF0F617
:1019B000B2FBF0F0B0FBF1F06FF01802504306EB11
:1019C000800003EB0010B0FBF1F0216800F00F0085
:1019D0002844886070BD0000003801402DE9F843BC
:1019E000984617460D460446089E24E0701C22D0F7
:1019F000FEF788FDA0EB0800B0421AD8CEB12068EF
:101A0000C168490717D5802D15D0402D13D0016826
:101A1000C94309070FD4016800254068009020469B
:101A2000FFF7F8FE0820606484F840500120BDE80C
:101A3000F8830320FBE72068006835EA000004D043
:101A40000020B842D2D00020F1E70120F9E70000E1
:101A50000148FFF75FBB000098000020FEE7000090
:101A600011B581B020208DF800000198000501908B
:101A700000F0C6F800F098F80A4C00221021204629
:101A8000FEF73AFD01216846FFF704FE032101A895
:101A9000FFF700FE012210212046FEF72DFD00F089
:101AA00083F81CBD0008014077B581B005460220CF
:101AB0008DF80000029814460002029000F0A0F891
:101AC0000C4E002210213046FEF716FD012168461B
:101AD000FFF7E0FD032102A8FFF7DCFD21462846C1
:101AE000FFF7D8FD012210213046FEF705FD00F07A
:101AF0005BF87FBD0008014077B581B00646032042
:101B00008DF80000029815460002029000F04CF893
:101B1000114C002210212046FEF7EEFC0121684600
:101B2000FFF7B8FD032102A8FFF7B4FD20B929464D
:101B30003046FFF7A7FD40B1012210212046FEF7F5
:101B4000DBFC4FF0FF3004B070BD012210212046B5
:101B5000FEF7D2FC0020F6E7000801407CB500202B
:101B6000044600900EA00F4D006801900022102145
:101B70002846FEF7C1FC042101A8FFF78BFD38B908
:101B800002216846FFF77EFD10B9BDF8000044BA97
:101B9000012210212846FEF7AFFC20467CBD000044
:101BA00090000000000801407CB50525134E00247C
:101BB00001948DF800408DF8045000221021304629
:101BC000FEF79AFC042101A8FFF764FD20B901216A
:101BD0006846FFF757FD40B1012210213046FEF75D
:101BE0008BFC2046C007E3D17CBD0122102130468A
:101BF000FEF782FC9DF80000F4E7000000080140B9
:101C000038B50620094C8DF800000022102120462E
:101C1000FEF772FC01216846FFF73CFD012210210E
:101C20002046FEF769FCFFF7BFFF38BD0008014002
:101C30000FB4054B10B503A9044A029800F028F828
:101C400010BC5DF814FB0000F52000081400002013
:101C50000907090E002804DB00F1E02080F80014D9
:101C6000704700F00F0000F1E02080F8141D70476D
:101C700002E008C8121F08C1002AFAD17047704755
:101C8000002001E001C1121F002AFBD170470000B3
:101C90002DE9FF4F8DB00F460546002606E02528AA
:101CA0000BD0DDE90F1290476D1C761C28780028B8
:101CB000F5D111B03046BDE8F08F0024A246A14610
:101CC0000122EC4900E0044315F8013F203B02FAF1
:101CD00003F00842F7D128782A2810D06FF02F029D
:101CE0002878A0F13001092914D80AEB8A0102EB07
:101CF000410144F0020400EB010A6D1CF0E701CF42
:101D00005FEA000A03D544F40054CAF1000A44F023
:101D100002046D1C28782E2817D115F8010F44F005
:101D200004042A280ED06FF02F022878A0F1300189
:101D300009290AD809EB890102EB410100EB0109ED
:101D40006D1CF2E757F8049B6D1C28786C280FD0A7
:101D500006DC4C2817D068280DD06A2814D104E07E
:101D6000742810D07A280FD10DE044F400140AE052
:101D700044F4801401E044F440146978814202D1B3
:101D800004F580146D1C6D1C2A786E2A1FD00CDCA3
:101D9000632A31D004DC002A8BD0582A11D1A3E069
:101DA000642A68D0692A0CD165E0732A2ED004DC3D
:101DB0006F2A73D0702A04D19BE0752A6FD0782ADD
:101DC0006ED01046DDE90F129047761C50E1C4F347
:101DD0000250022806D0032809D0042801CF09D0D8
:101DE000066045E101CFF117C0E9006140E101CF94
:101DF00006803DE106703BE117F8040B8DF800000A
:101E000000208DF80100EB46012003E057F804BBE9
:101E10004FF0FF3061074FF0000102D40DE008F1F0
:101E20000101884649450FDA8045F8DB1BF80810A8
:101E30000029F4D108E008F1010188468142FADB6B
:101E40001BF808100029F6D1DDE90F23AAEB0800E2
:101E50008146214600F036F9304400EB080604E0E4
:101E6000DDE90F121BF8010B9047B8F10108F7D21A
:101E700021464846F7E00A21C4F302534FF0000B15
:101E80000891022B04D001CFC117032B09D00AE01F
:101E9000FF1D27F00707F7E8020108E032E01FE026
:101EA00020E000B2C117042B01D140B2C117031EBC
:101EB00071F1000307DA4FF0000CD0EB0C006CEB73
:101EC00001012D2302E0230504D52B238DF82430B6
:101ED000012303E0E30701D02023F7E7984658E009
:101EE0000A2110E010210EE010204FF0000B0890A6
:101EF0000CE010214FF0000B44F004044FF00809EF
:101F0000089103E008214FF0000B0891C4F302533D
:101F1000022B04D001CF0021032B06D006E0FF1DC9
:101F200027F00707F7E8020103E080B2042B00D195
:101F3000C0B24FF0000823072BD5702A07D0DDF878
:101F400020C08CF0100C5CEA0B0C05D00EE0402396
:101F50008DF82430012308E050EA010306D0302335
:101F60008DF824308DF8252002239846DDF820C016
:101F70008CF0080C5CEA0B0C0BD150EA010301D188
:101F8000630706D530238DF824304FF00108A9F1FE
:101F90000109582A04D038A20B9208AA0A920BE031
:101FA0003AA2F9E75B46089AFEF7DEF80B9B9B5CCA
:101FB0000A9A521E0A92137050EA0102F2D10A984C
:101FC000ADEB000000F1200B600702D524F4803453
:101FD00001E04FF00109D94502DDA9EB0B0000E05B
:101FE000002000EB0B0141440890AAEB010AE0033A
:101FF00006D4DDE90F232146504600F063F806447D
:102000004FF0000908E009A911F80900DDE90F12F5
:10201000904709F10109761CC145F4DBE0030CD5BA
:10202000DDE90F232146504600F04CF8064404E059
:10203000DDE90F1230209047761C0899481E089061
:102040000029F5DC08E00A980A990078491C0A91F1
:10205000DDE90F129047761CBBF10001ABF1010BDB
:10206000F1DC21465046DDE90F2300F019F8064463
:102070006D1C1BE609280100303132333435363708
:1020800038396162636465660000000030313233C4
:102090003435363738394142434445460000000064
:1020A0002DE9F041044600251E461746880404D455
:1020B00005E039462020B0476D1C641EF9D528463E
:1020C000BDE8F0812DE9F041044600251E4690460A
:1020D000C80301D5302700E02027880404D505E097
:1020E00041463846B0476D1C641EF9D52846BDE808
:1020F000F081000013B54FF6FF73012269460248D4
:10210000FFF7B1F900981CBD98000020FEF708FA0F
:10211000FFF748FBFFF7FAF9FFF728FAFFF74AFA4B
:102120000020FFF79DFC26A0FFF782FD28A0FFF707
:102130007FFD142200212748FFF7DEFC26A0FFF7D1
:1021400077FD23A0FFF774FD14212248FFF708FB59
:1021500027A0FFF76DFD1EA0FFF76AFD1D4A0020B6
:10216000092114321154401C1428FBDB1948142295
:1021700000211430FFF798FC164814211430FFF7A3
:10218000EFFA20A0FFF754FD11A0FFF751FD142234
:1021900000211048FFF7B0FC14210E48FFF7E0FAC9
:1021A000224C4FF47A7500BFFFF7D8FC208001461F
:1021B0001FA0FFF73DFD2846FEF79CF8F4E700005E
:1021C000E693A6E999A4E68987E58CBA2000000089
:1021D0000D00000018000020E8AFBBE58F96666C8C
:1021E000617368E58685E695B0E68DAE2000000057
:1021F000E5BC80E5A78BE58699E585A5E695B0E683
:102200008DAE2000E695B0E68DAEE58699E585A514
:10221000E5AE8CE6AF95E8AFBBE58F9666616C7373
:1022200068E58685E695B0E68DAE200000000020CA
:10223000E8AFA5E58E82E5AEB6573235513634E8C3
:102240008AAFE789874944E4B8BA2030782530342A
:10225000780D0A00010202030405060708090A0BAB
:102260000C0D0E0F10100000000000000000010215
:10227000030406070809000000000102030400002F
:10228000A02200080000002018000000701C0008B8
:10229000B822000818000020C8040000801C0008B4
:1022A000000000000100000010000000000000001D
:0822B00000127A00000000009A
:04000005080000ED02
:00000001FF
